{
  "_format": "hh-sol-artifact-1",
  "contractName": "IchimatsuNFT",
  "sourceName": "contracts/IchimatsuNFT.sol",
  "abi": [
    {
      "inputs": [
        {
          "internalType": "string",
          "name": "_name",
          "type": "string"
        },
        {
          "internalType": "string",
          "name": "_symbol",
          "type": "string"
        },
        {
          "internalType": "address",
          "name": "_royaltyRecipient",
          "type": "address"
        },
        {
          "internalType": "uint128",
          "name": "_royaltyBps",
          "type": "uint128"
        }
      ],
      "stateMutability": "nonpayable",
      "type": "constructor"
    },
    {
      "inputs": [],
      "name": "ApprovalCallerNotOwnerNorApproved",
      "type": "error"
    },
    {
      "inputs": [],
      "name": "ApprovalQueryForNonexistentToken",
      "type": "error"
    },
    {
      "inputs": [],
      "name": "ApprovalToCurrentOwner",
      "type": "error"
    },
    {
      "inputs": [],
      "name": "ApproveToCaller",
      "type": "error"
    },
    {
      "inputs": [],
      "name": "BalanceQueryForZeroAddress",
      "type": "error"
    },
    {
      "inputs": [],
      "name": "MintToZeroAddress",
      "type": "error"
    },
    {
      "inputs": [],
      "name": "MintZeroQuantity",
      "type": "error"
    },
    {
      "inputs": [
        {
          "internalType": "address",
          "name": "operator",
          "type": "address"
        }
      ],
      "name": "OperatorNotAllowed",
      "type": "error"
    },
    {
      "inputs": [],
      "name": "OwnerQueryForNonexistentToken",
      "type": "error"
    },
    {
      "inputs": [],
      "name": "TransferCallerNotOwnerNorApproved",
      "type": "error"
    },
    {
      "inputs": [],
      "name": "TransferFromIncorrectOwner",
      "type": "error"
    },
    {
      "inputs": [],
      "name": "TransferToNonERC721ReceiverImplementer",
      "type": "error"
    },
    {
      "inputs": [],
      "name": "TransferToZeroAddress",
      "type": "error"
    },
    {
      "inputs": [],
      "name": "URIQueryForNonexistentToken",
      "type": "error"
    },
    {
      "anonymous": false,
      "inputs": [
        {
          "indexed": true,
          "internalType": "address",
          "name": "owner",
          "type": "address"
        },
        {
          "indexed": true,
          "internalType": "address",
          "name": "approved",
          "type": "address"
        },
        {
          "indexed": true,
          "internalType": "uint256",
          "name": "tokenId",
          "type": "uint256"
        }
      ],
      "name": "Approval",
      "type": "event"
    },
    {
      "anonymous": false,
      "inputs": [
        {
          "indexed": true,
          "internalType": "address",
          "name": "owner",
          "type": "address"
        },
        {
          "indexed": true,
          "internalType": "address",
          "name": "operator",
          "type": "address"
        },
        {
          "indexed": false,
          "internalType": "bool",
          "name": "approved",
          "type": "bool"
        }
      ],
      "name": "ApprovalForAll",
      "type": "event"
    },
    {
      "anonymous": false,
      "inputs": [
        {
          "indexed": false,
          "internalType": "string",
          "name": "prevURI",
          "type": "string"
        },
        {
          "indexed": false,
          "internalType": "string",
          "name": "newURI",
          "type": "string"
        }
      ],
      "name": "ContractURIUpdated",
      "type": "event"
    },
    {
      "anonymous": false,
      "inputs": [
        {
          "indexed": true,
          "internalType": "address",
          "name": "newRoyaltyRecipient",
          "type": "address"
        },
        {
          "indexed": false,
          "internalType": "uint256",
          "name": "newRoyaltyBps",
          "type": "uint256"
        }
      ],
      "name": "DefaultRoyalty",
      "type": "event"
    },
    {
      "anonymous": false,
      "inputs": [
        {
          "indexed": false,
          "internalType": "bool",
          "name": "restriction",
          "type": "bool"
        }
      ],
      "name": "OperatorRestriction",
      "type": "event"
    },
    {
      "anonymous": false,
      "inputs": [
        {
          "indexed": true,
          "internalType": "address",
          "name": "prevOwner",
          "type": "address"
        },
        {
          "indexed": true,
          "internalType": "address",
          "name": "newOwner",
          "type": "address"
        }
      ],
      "name": "OwnerUpdated",
      "type": "event"
    },
    {
      "anonymous": false,
      "inputs": [
        {
          "indexed": true,
          "internalType": "uint256",
          "name": "tokenId",
          "type": "uint256"
        },
        {
          "indexed": true,
          "internalType": "address",
          "name": "royaltyRecipient",
          "type": "address"
        },
        {
          "indexed": false,
          "internalType": "uint256",
          "name": "royaltyBps",
          "type": "uint256"
        }
      ],
      "name": "RoyaltyForToken",
      "type": "event"
    },
    {
      "anonymous": false,
      "inputs": [
        {
          "indexed": true,
          "internalType": "address",
          "name": "from",
          "type": "address"
        },
        {
          "indexed": true,
          "internalType": "address",
          "name": "to",
          "type": "address"
        },
        {
          "indexed": true,
          "internalType": "uint256",
          "name": "tokenId",
          "type": "uint256"
        }
      ],
      "name": "Transfer",
      "type": "event"
    },
    {
      "inputs": [],
      "name": "OPERATOR_FILTER_REGISTRY",
      "outputs": [
        {
          "internalType": "contract IOperatorFilterRegistry",
          "name": "",
          "type": "address"
        }
      ],
      "stateMutability": "view",
      "type": "function"
    },
    {
      "inputs": [
        {
          "internalType": "address",
          "name": "operator",
          "type": "address"
        },
        {
          "internalType": "uint256",
          "name": "tokenId",
          "type": "uint256"
        }
      ],
      "name": "approve",
      "outputs": [],
      "stateMutability": "nonpayable",
      "type": "function"
    },
    {
      "inputs": [
        {
          "internalType": "address",
          "name": "owner",
          "type": "address"
        }
      ],
      "name": "balanceOf",
      "outputs": [
        {
          "internalType": "uint256",
          "name": "",
          "type": "uint256"
        }
      ],
      "stateMutability": "view",
      "type": "function"
    },
    {
      "inputs": [
        {
          "internalType": "address",
          "name": "_to",
          "type": "address"
        },
        {
          "internalType": "uint256",
          "name": "_quantity",
          "type": "uint256"
        },
        {
          "internalType": "string",
          "name": "_baseURI",
          "type": "string"
        },
        {
          "internalType": "bytes",
          "name": "_data",
          "type": "bytes"
        }
      ],
      "name": "batchMintTo",
      "outputs": [],
      "stateMutability": "nonpayable",
      "type": "function"
    },
    {
      "inputs": [
        {
          "internalType": "uint256",
          "name": "_tokenId",
          "type": "uint256"
        }
      ],
      "name": "burn",
      "outputs": [],
      "stateMutability": "nonpayable",
      "type": "function"
    },
    {
      "inputs": [],
      "name": "contractURI",
      "outputs": [
        {
          "internalType": "string",
          "name": "",
          "type": "string"
        }
      ],
      "stateMutability": "view",
      "type": "function"
    },
    {
      "inputs": [
        {
          "internalType": "uint256",
          "name": "tokenId",
          "type": "uint256"
        }
      ],
      "name": "getApproved",
      "outputs": [
        {
          "internalType": "address",
          "name": "",
          "type": "address"
        }
      ],
      "stateMutability": "view",
      "type": "function"
    },
    {
      "inputs": [],
      "name": "getBaseURICount",
      "outputs": [
        {
          "internalType": "uint256",
          "name": "",
          "type": "uint256"
        }
      ],
      "stateMutability": "view",
      "type": "function"
    },
    {
      "inputs": [
        {
          "internalType": "uint256",
          "name": "_index",
          "type": "uint256"
        }
      ],
      "name": "getBatchIdAtIndex",
      "outputs": [
        {
          "internalType": "uint256",
          "name": "",
          "type": "uint256"
        }
      ],
      "stateMutability": "view",
      "type": "function"
    },
    {
      "inputs": [],
      "name": "getDefaultRoyaltyInfo",
      "outputs": [
        {
          "internalType": "address",
          "name": "",
          "type": "address"
        },
        {
          "internalType": "uint16",
          "name": "",
          "type": "uint16"
        }
      ],
      "stateMutability": "view",
      "type": "function"
    },
    {
      "inputs": [
        {
          "internalType": "uint256",
          "name": "_tokenId",
          "type": "uint256"
        }
      ],
      "name": "getRoyaltyInfoForToken",
      "outputs": [
        {
          "internalType": "address",
          "name": "",
          "type": "address"
        },
        {
          "internalType": "uint16",
          "name": "",
          "type": "uint16"
        }
      ],
      "stateMutability": "view",
      "type": "function"
    },
    {
      "inputs": [
        {
          "internalType": "address",
          "name": "owner",
          "type": "address"
        },
        {
          "internalType": "address",
          "name": "operator",
          "type": "address"
        }
      ],
      "name": "isApprovedForAll",
      "outputs": [
        {
          "internalType": "bool",
          "name": "",
          "type": "bool"
        }
      ],
      "stateMutability": "view",
      "type": "function"
    },
    {
      "inputs": [
        {
          "internalType": "address",
          "name": "_operator",
          "type": "address"
        },
        {
          "internalType": "uint256",
          "name": "_tokenId",
          "type": "uint256"
        }
      ],
      "name": "isApprovedOrOwner",
      "outputs": [
        {
          "internalType": "bool",
          "name": "isApprovedOrOwnerOf",
          "type": "bool"
        }
      ],
      "stateMutability": "view",
      "type": "function"
    },
    {
      "inputs": [
        {
          "internalType": "address",
          "name": "_to",
          "type": "address"
        },
        {
          "internalType": "string",
          "name": "_tokenURI",
          "type": "string"
        }
      ],
      "name": "mintTo",
      "outputs": [],
      "stateMutability": "nonpayable",
      "type": "function"
    },
    {
      "inputs": [
        {
          "internalType": "bytes[]",
          "name": "data",
          "type": "bytes[]"
        }
      ],
      "name": "multicall",
      "outputs": [
        {
          "internalType": "bytes[]",
          "name": "results",
          "type": "bytes[]"
        }
      ],
      "stateMutability": "nonpayable",
      "type": "function"
    },
    {
      "inputs": [],
      "name": "name",
      "outputs": [
        {
          "internalType": "string",
          "name": "",
          "type": "string"
        }
      ],
      "stateMutability": "view",
      "type": "function"
    },
    {
      "inputs": [],
      "name": "nextTokenIdToMint",
      "outputs": [
        {
          "internalType": "uint256",
          "name": "",
          "type": "uint256"
        }
      ],
      "stateMutability": "view",
      "type": "function"
    },
    {
      "inputs": [],
      "name": "operatorRestriction",
      "outputs": [
        {
          "internalType": "bool",
          "name": "",
          "type": "bool"
        }
      ],
      "stateMutability": "view",
      "type": "function"
    },
    {
      "inputs": [],
      "name": "owner",
      "outputs": [
        {
          "internalType": "address",
          "name": "",
          "type": "address"
        }
      ],
      "stateMutability": "view",
      "type": "function"
    },
    {
      "inputs": [
        {
          "internalType": "uint256",
          "name": "tokenId",
          "type": "uint256"
        }
      ],
      "name": "ownerOf",
      "outputs": [
        {
          "internalType": "address",
          "name": "",
          "type": "address"
        }
      ],
      "stateMutability": "view",
      "type": "function"
    },
    {
      "inputs": [
        {
          "internalType": "uint256",
          "name": "tokenId",
          "type": "uint256"
        },
        {
          "internalType": "uint256",
          "name": "salePrice",
          "type": "uint256"
        }
      ],
      "name": "royaltyInfo",
      "outputs": [
        {
          "internalType": "address",
          "name": "receiver",
          "type": "address"
        },
        {
          "internalType": "uint256",
          "name": "royaltyAmount",
          "type": "uint256"
        }
      ],
      "stateMutability": "view",
      "type": "function"
    },
    {
      "inputs": [
        {
          "internalType": "address",
          "name": "from",
          "type": "address"
        },
        {
          "internalType": "address",
          "name": "to",
          "type": "address"
        },
        {
          "internalType": "uint256",
          "name": "tokenId",
          "type": "uint256"
        }
      ],
      "name": "safeTransferFrom",
      "outputs": [],
      "stateMutability": "nonpayable",
      "type": "function"
    },
    {
      "inputs": [
        {
          "internalType": "address",
          "name": "from",
          "type": "address"
        },
        {
          "internalType": "address",
          "name": "to",
          "type": "address"
        },
        {
          "internalType": "uint256",
          "name": "tokenId",
          "type": "uint256"
        },
        {
          "internalType": "bytes",
          "name": "data",
          "type": "bytes"
        }
      ],
      "name": "safeTransferFrom",
      "outputs": [],
      "stateMutability": "nonpayable",
      "type": "function"
    },
    {
      "inputs": [
        {
          "internalType": "address",
          "name": "operator",
          "type": "address"
        },
        {
          "internalType": "bool",
          "name": "approved",
          "type": "bool"
        }
      ],
      "name": "setApprovalForAll",
      "outputs": [],
      "stateMutability": "nonpayable",
      "type": "function"
    },
    {
      "inputs": [
        {
          "internalType": "string",
          "name": "_uri",
          "type": "string"
        }
      ],
      "name": "setContractURI",
      "outputs": [],
      "stateMutability": "nonpayable",
      "type": "function"
    },
    {
      "inputs": [
        {
          "internalType": "address",
          "name": "_royaltyRecipient",
          "type": "address"
        },
        {
          "internalType": "uint256",
          "name": "_royaltyBps",
          "type": "uint256"
        }
      ],
      "name": "setDefaultRoyaltyInfo",
      "outputs": [],
      "stateMutability": "nonpayable",
      "type": "function"
    },
    {
      "inputs": [
        {
          "internalType": "bool",
          "name": "_restriction",
          "type": "bool"
        }
      ],
      "name": "setOperatorRestriction",
      "outputs": [],
      "stateMutability": "nonpayable",
      "type": "function"
    },
    {
      "inputs": [
        {
          "internalType": "address",
          "name": "_newOwner",
          "type": "address"
        }
      ],
      "name": "setOwner",
      "outputs": [],
      "stateMutability": "nonpayable",
      "type": "function"
    },
    {
      "inputs": [
        {
          "internalType": "uint256",
          "name": "_tokenId",
          "type": "uint256"
        },
        {
          "internalType": "address",
          "name": "_recipient",
          "type": "address"
        },
        {
          "internalType": "uint256",
          "name": "_bps",
          "type": "uint256"
        }
      ],
      "name": "setRoyaltyInfoForToken",
      "outputs": [],
      "stateMutability": "nonpayable",
      "type": "function"
    },
    {
      "inputs": [
        {
          "internalType": "bytes4",
          "name": "interfaceId",
          "type": "bytes4"
        }
      ],
      "name": "supportsInterface",
      "outputs": [
        {
          "internalType": "bool",
          "name": "",
          "type": "bool"
        }
      ],
      "stateMutability": "view",
      "type": "function"
    },
    {
      "inputs": [],
      "name": "symbol",
      "outputs": [
        {
          "internalType": "string",
          "name": "",
          "type": "string"
        }
      ],
      "stateMutability": "view",
      "type": "function"
    },
    {
      "inputs": [
        {
          "internalType": "uint256",
          "name": "_tokenId",
          "type": "uint256"
        }
      ],
      "name": "tokenURI",
      "outputs": [
        {
          "internalType": "string",
          "name": "",
          "type": "string"
        }
      ],
      "stateMutability": "view",
      "type": "function"
    },
    {
      "inputs": [],
      "name": "totalSupply",
      "outputs": [
        {
          "internalType": "uint256",
          "name": "",
          "type": "uint256"
        }
      ],
      "stateMutability": "view",
      "type": "function"
    },
    {
      "inputs": [
        {
          "internalType": "address",
          "name": "from",
          "type": "address"
        },
        {
          "internalType": "address",
          "name": "to",
          "type": "address"
        },
        {
          "internalType": "uint256",
          "name": "tokenId",
          "type": "uint256"
        }
      ],
      "name": "transferFrom",
      "outputs": [],
      "stateMutability": "nonpayable",
      "type": "function"
    }
  ],
  "bytecode": "0x60806040523480156200001157600080fd5b50604051620057a5380380620057a583398181016040528101906200003791906200073c565b83838383733cc6cdda760b79bafa08df41ecfa224f810dceb660018585816002908162000065919062000a37565b50806003908162000077919062000a37565b5062000088620002dc60201b60201c565b600081905550505060006daaeb6d7670e522a718067333cd4e73ffffffffffffffffffffffffffffffffffffffff163b1115620002855780156200014b576daaeb6d7670e522a718067333cd4e73ffffffffffffffffffffffffffffffffffffffff16637d3e3dbe30846040518363ffffffff1660e01b81526004016200011192919062000b2f565b600060405180830381600087803b1580156200012c57600080fd5b505af115801562000141573d6000803e3d6000fd5b5050505062000284565b600073ffffffffffffffffffffffffffffffffffffffff168273ffffffffffffffffffffffffffffffffffffffff161462000205576daaeb6d7670e522a718067333cd4e73ffffffffffffffffffffffffffffffffffffffff1663a0af290330846040518363ffffffff1660e01b8152600401620001cb92919062000b2f565b600060405180830381600087803b158015620001e657600080fd5b505af1158015620001fb573d6000803e3d6000fd5b5050505062000283565b6daaeb6d7670e522a718067333cd4e73ffffffffffffffffffffffffffffffffffffffff16634420e486306040518263ffffffff1660e01b81526004016200024e919062000b5c565b600060405180830381600087803b1580156200026957600080fd5b505af11580156200027e573d6000803e3d6000fd5b505050505b5b5b50506200029833620002e160201b60201c565b620002bc82826fffffffffffffffffffffffffffffffff16620003a760201b60201c565b620002ce6001620004a160201b60201c565b505050505050505062000c64565b600090565b6000600960009054906101000a900473ffffffffffffffffffffffffffffffffffffffff16905081600960006101000a81548173ffffffffffffffffffffffffffffffffffffffff021916908373ffffffffffffffffffffffffffffffffffffffff1602179055508173ffffffffffffffffffffffffffffffffffffffff168173ffffffffffffffffffffffffffffffffffffffff167f8292fce18fa69edf4db7b94ea2e58241df0ae57f97e0a6c9b29067028bf92d7660405160405180910390a35050565b612710811115620003ef576040517f08c379a0000000000000000000000000000000000000000000000000000000008152600401620003e69062000bda565b60405180910390fd5b81600a60006101000a81548173ffffffffffffffffffffffffffffffffffffffff021916908373ffffffffffffffffffffffffffffffffffffffff16021790555080600a60146101000a81548161ffff021916908361ffff1602179055508173ffffffffffffffffffffffffffffffffffffffff167f90d7ec04bcb8978719414f82e52e4cb651db41d0e6f8cea6118c2191e6183adb8260405162000495919062000c0d565b60405180910390a25050565b80600e60006101000a81548160ff0219169083151502179055507f38475885990d8dfe9ca01f0ef160a1b5514426eab9ddbc953a3353410ba7809681604051620004ec919062000c47565b60405180910390a150565b6000604051905090565b600080fd5b600080fd5b600080fd5b600080fd5b6000601f19601f8301169050919050565b7f4e487b7100000000000000000000000000000000000000000000000000000000600052604160045260246000fd5b620005608262000515565b810181811067ffffffffffffffff8211171562000582576200058162000526565b5b80604052505050565b600062000597620004f7565b9050620005a5828262000555565b919050565b600067ffffffffffffffff821115620005c857620005c762000526565b5b620005d38262000515565b9050602081019050919050565b60005b8381101562000600578082015181840152602081019050620005e3565b60008484015250505050565b6000620006236200061d84620005aa565b6200058b565b90508281526020810184848401111562000642576200064162000510565b5b6200064f848285620005e0565b509392505050565b600082601f8301126200066f576200066e6200050b565b5b8151620006818482602086016200060c565b91505092915050565b600073ffffffffffffffffffffffffffffffffffffffff82169050919050565b6000620006b7826200068a565b9050919050565b620006c981620006aa565b8114620006d557600080fd5b50565b600081519050620006e981620006be565b92915050565b60006fffffffffffffffffffffffffffffffff82169050919050565b6200071681620006ef565b81146200072257600080fd5b50565b60008151905062000736816200070b565b92915050565b6000806000806080858703121562000759576200075862000501565b5b600085015167ffffffffffffffff8111156200077a576200077962000506565b5b620007888782880162000657565b945050602085015167ffffffffffffffff811115620007ac57620007ab62000506565b5b620007ba8782880162000657565b9350506040620007cd87828801620006d8565b9250506060620007e08782880162000725565b91505092959194509250565b600081519050919050565b7f4e487b7100000000000000000000000000000000000000000000000000000000600052602260045260246000fd5b600060028204905060018216806200083f57607f821691505b602082108103620008555762000854620007f7565b5b50919050565b60008190508160005260206000209050919050565b60006020601f8301049050919050565b600082821b905092915050565b600060088302620008bf7fffffffffffffffffffffffffffffffffffffffffffffffffffffffffffffffff8262000880565b620008cb868362000880565b95508019841693508086168417925050509392505050565b6000819050919050565b6000819050919050565b600062000918620009126200090c84620008e3565b620008ed565b620008e3565b9050919050565b6000819050919050565b6200093483620008f7565b6200094c62000943826200091f565b8484546200088d565b825550505050565b600090565b6200096362000954565b6200097081848462000929565b505050565b5b8181101562000998576200098c60008262000959565b60018101905062000976565b5050565b601f821115620009e757620009b1816200085b565b620009bc8462000870565b81016020851015620009cc578190505b620009e4620009db8562000870565b83018262000975565b50505b505050565b600082821c905092915050565b600062000a0c60001984600802620009ec565b1980831691505092915050565b600062000a278383620009f9565b9150826002028217905092915050565b62000a4282620007ec565b67ffffffffffffffff81111562000a5e5762000a5d62000526565b5b62000a6a825462000826565b62000a778282856200099c565b600060209050601f83116001811462000aaf576000841562000a9a578287015190505b62000aa6858262000a19565b86555062000b16565b601f19841662000abf866200085b565b60005b8281101562000ae95784890151825560018201915060208501945060208101905062000ac2565b8683101562000b09578489015162000b05601f891682620009f9565b8355505b6001600288020188555050505b505050505050565b62000b2981620006aa565b82525050565b600060408201905062000b46600083018562000b1e565b62000b55602083018462000b1e565b9392505050565b600060208201905062000b73600083018462000b1e565b92915050565b600082825260208201905092915050565b7f45786365656473206d6178206270730000000000000000000000000000000000600082015250565b600062000bc2600f8362000b79565b915062000bcf8262000b8a565b602082019050919050565b6000602082019050818103600083015262000bf58162000bb3565b9050919050565b62000c0781620008e3565b82525050565b600060208201905062000c24600083018462000bfc565b92915050565b60008115159050919050565b62000c418162000c2a565b82525050565b600060208201905062000c5e600083018462000c36565b92915050565b614b318062000c746000396000f3fe608060405234801561001057600080fd5b50600436106102055760003560e01c8063504c6e011161011a57806395d89b41116100ad578063b24f2d391161007c578063b24f2d39146105fc578063b88d4fde1461061b578063c87b56dd14610637578063e8a3d48514610667578063e985e9c51461068557610205565b806395d89b41146105765780639bcf7a1514610594578063a22cb465146105b0578063ac9650d8146105cc57610205565b806370a08231116100e957806370a08231146104f0578063754a81d9146105205780638da5cb5b1461053c578063938e3d7b1461055a57610205565b8063504c6e0114610468578063600dd5ea146104865780636352211e146104a257806363b45e2d146104d257610205565b80632419f51b1161019d57806341f434341161016c57806341f43434146103b157806342842e0e146103cf57806342966c68146103eb578063430c2081146104075780634cc157df1461043757610205565b80632419f51b146103165780632a55205a1461034657806332f0cd64146103775780633b1475a71461039357610205565b8063095ea7b3116101d9578063095ea7b3146102a457806313af4035146102c057806318160ddd146102dc57806323b872dd146102fa57610205565b806275a3171461020a57806301ffc9a71461022657806306fdde0314610256578063081812fc14610274575b600080fd5b610224600480360381019061021f919061365e565b6106b5565b005b610240600480360381019061023b9190613712565b61072c565b60405161024d919061375a565b60405180910390f35b61025e610826565b60405161026b91906137f4565b60405180910390f35b61028e6004803603810190610289919061384c565b6108b8565b60405161029b9190613888565b60405180910390f35b6102be60048036038101906102b991906138a3565b610934565b005b6102da60048036038101906102d591906138e3565b61094d565b005b6102e46109a0565b6040516102f1919061391f565b60405180910390f35b610314600480360381019061030f919061393a565b6109b7565b005b610330600480360381019061032b919061384c565b610a06565b60405161033d919061391f565b60405180910390f35b610360600480360381019061035b919061398d565b610a77565b60405161036e9291906139cd565b60405180910390f35b610391600480360381019061038c9190613a22565b610ab5565b005b61039b610b08565b6040516103a8919061391f565b60405180910390f35b6103b9610b11565b6040516103c69190613aae565b60405180910390f35b6103e960048036038101906103e4919061393a565b610b23565b005b6104056004803603810190610400919061384c565b610b72565b005b610421600480360381019061041c91906138a3565b610b80565b60405161042e919061375a565b60405180910390f35b610451600480360381019061044c919061384c565b610c15565b60405161045f929190613ae6565b60405180910390f35b610470610d20565b60405161047d919061375a565b60405180910390f35b6104a0600480360381019061049b91906138a3565b610d33565b005b6104bc60048036038101906104b7919061384c565b610d88565b6040516104c99190613888565b60405180910390f35b6104da610d9e565b6040516104e7919061391f565b60405180910390f35b61050a600480360381019061050591906138e3565b610dab565b604051610517919061391f565b60405180910390f35b61053a60048036038101906105359190613bb0565b610e7a565b005b610544610ee6565b6040516105519190613888565b60405180910390f35b610574600480360381019061056f9190613c4f565b610f10565b005b61057e610f63565b60405161058b91906137f4565b60405180910390f35b6105ae60048036038101906105a99190613c98565b610ff5565b005b6105ca60048036038101906105c59190613ceb565b61104c565b005b6105e660048036038101906105e19190613d8b565b611065565b6040516105f39190613eef565b60405180910390f35b610604611171565b604051610612929190613ae6565b60405180910390f35b61063560048036038101906106309190613f11565b6111b0565b005b610651600480360381019061064c919061384c565b611201565b60405161065e91906137f4565b60405180910390f35b61066f6112f7565b60405161067c91906137f4565b60405180910390f35b61069f600480360381019061069a9190613f94565b611385565b6040516106ac919061375a565b60405180910390f35b6106bd611419565b6106fc576040517f08c379a00000000000000000000000000000000000000000000000000000000081526004016106f390614020565b60405180910390fd5b61070d610707610b08565b82611456565b610728826001604051806020016040528060008152506114dd565b5050565b60006301ffc9a760e01b827bffffffffffffffffffffffffffffffffffffffffffffffffffffffff1916148061078757506380ac58cd60e01b827bffffffffffffffffffffffffffffffffffffffffffffffffffffffff1916145b806107b75750635b5e139f60e01b827bffffffffffffffffffffffffffffffffffffffffffffffffffffffff1916145b8061081f57507f2a55205a000000000000000000000000000000000000000000000000000000007bffffffffffffffffffffffffffffffffffffffffffffffffffffffff1916827bffffffffffffffffffffffffffffffffffffffffffffffffffffffff1916145b9050919050565b6060600280546108359061406f565b80601f01602080910402602001604051908101604052809291908181526020018280546108619061406f565b80156108ae5780601f10610883576101008083540402835291602001916108ae565b820191906000526020600020905b81548152906001019060200180831161089157829003601f168201915b5050505050905090565b60006108c38261189d565b6108f9576040517fcf4700e400000000000000000000000000000000000000000000000000000000815260040160405180910390fd5b6006600083815260200190815260200160002060009054906101000a900473ffffffffffffffffffffffffffffffffffffffff169050919050565b8161093e816118eb565b61094883836119fe565b505050565b610955611b02565b610994576040517f08c379a000000000000000000000000000000000000000000000000000000000815260040161098b906140ec565b60405180910390fd5b61099d81611b3f565b50565b60006109aa611c05565b6001546000540303905090565b823373ffffffffffffffffffffffffffffffffffffffff168173ffffffffffffffffffffffffffffffffffffffff16146109f5576109f4336118eb565b5b610a00848484611c0a565b50505050565b6000610a10610d9e565b8210610a51576040517f08c379a0000000000000000000000000000000000000000000000000000000008152600401610a4890614158565b60405180910390fd5b600c8281548110610a6557610a64614178565b5b90600052602060002001549050919050565b600080600080610a8686610c15565b61ffff16915091508193506127108186610aa091906141d6565b610aaa9190614247565b925050509250929050565b610abd611c1a565b610afc576040517f08c379a0000000000000000000000000000000000000000000000000000000008152600401610af3906142ea565b60405180910390fd5b610b0581611c57565b50565b60008054905090565b6daaeb6d7670e522a718067333cd4e81565b823373ffffffffffffffffffffffffffffffffffffffff168173ffffffffffffffffffffffffffffffffffffffff1614610b6157610b60336118eb565b5b610b6c848484611cab565b50505050565b610b7d816001611ccb565b50565b600080610b8c83610d88565b90508073ffffffffffffffffffffffffffffffffffffffff168473ffffffffffffffffffffffffffffffffffffffff161480610bce5750610bcd8185611385565b5b80610c0c57508373ffffffffffffffffffffffffffffffffffffffff16610bf4846108b8565b73ffffffffffffffffffffffffffffffffffffffff16145b91505092915050565b6000806000600b60008581526020019081526020016000206040518060400160405290816000820160009054906101000a900473ffffffffffffffffffffffffffffffffffffffff1673ffffffffffffffffffffffffffffffffffffffff1673ffffffffffffffffffffffffffffffffffffffff1681526020016001820154815250509050600073ffffffffffffffffffffffffffffffffffffffff16816000015173ffffffffffffffffffffffffffffffffffffffff1614610ce15780600001518160200151610d16565b600a60009054906101000a900473ffffffffffffffffffffffffffffffffffffffff16600a60149054906101000a900461ffff165b9250925050915091565b600e60009054906101000a900460ff1681565b610d3b6120ba565b610d7a576040517f08c379a0000000000000000000000000000000000000000000000000000000008152600401610d71906140ec565b60405180910390fd5b610d8482826120f7565b5050565b6000610d93826121ec565b600001519050919050565b6000600c80549050905090565b60008073ffffffffffffffffffffffffffffffffffffffff168273ffffffffffffffffffffffffffffffffffffffff1603610e12576040517f8f4eb60400000000000000000000000000000000000000000000000000000000815260040160405180910390fd5b600560008373ffffffffffffffffffffffffffffffffffffffff1673ffffffffffffffffffffffffffffffffffffffff16815260200190815260200160002060000160009054906101000a900467ffffffffffffffff1667ffffffffffffffff169050919050565b610e82611419565b610ec1576040517f08c379a0000000000000000000000000000000000000000000000000000000008152600401610eb890614020565b60405180910390fd5b610ed3610ecc610b08565b8484612477565b5050610ee08484836114dd565b50505050565b6000600960009054906101000a900473ffffffffffffffffffffffffffffffffffffffff16905090565b610f186124dd565b610f57576040517f08c379a0000000000000000000000000000000000000000000000000000000008152600401610f4e906140ec565b60405180910390fd5b610f608161251a565b50565b606060038054610f729061406f565b80601f0160208091040260200160405190810160405280929190818152602001828054610f9e9061406f565b8015610feb5780601f10610fc057610100808354040283529160200191610feb565b820191906000526020600020905b815481529060010190602001808311610fce57829003601f168201915b5050505050905090565b610ffd6120ba565b61103c576040517f08c379a0000000000000000000000000000000000000000000000000000000008152600401611033906140ec565b60405180910390fd5b6110478383836125f6565b505050565b81611056816118eb565b6110608383612721565b505050565b60608282905067ffffffffffffffff81111561108457611083613533565b5b6040519080825280602002602001820160405280156110b757816020015b60608152602001906001900390816110a25790505b50905060005b8383905081101561116a57611139308585848181106110df576110de614178565b5b90506020028101906110f19190614319565b8080601f016020809104026020016040519081016040528093929190818152602001838380828437600081840152601f19601f82011690508083019250505050505050612898565b82828151811061114c5761114b614178565b5b602002602001018190525080806111629061437c565b9150506110bd565b5092915050565b600080600a60009054906101000a900473ffffffffffffffffffffffffffffffffffffffff16600a60149054906101000a900461ffff16915091509091565b833373ffffffffffffffffffffffffffffffffffffffff168173ffffffffffffffffffffffffffffffffffffffff16146111ee576111ed336118eb565b5b6111fa858585856128c5565b5050505050565b60606000600f600084815260200190815260200160002080546112239061406f565b80601f016020809104026020016040519081016040528092919081815260200182805461124f9061406f565b801561129c5780601f106112715761010080835404028352916020019161129c565b820191906000526020600020905b81548152906001019060200180831161127f57829003601f168201915b505050505090506000815111156112b657809150506112f2565b60006112c18461293d565b9050806112cd85612ae2565b6040516020016112de929190614400565b604051602081830303815290604052925050505b919050565b600880546113049061406f565b80601f01602080910402602001604051908101604052809291908181526020018280546113309061406f565b801561137d5780601f106113525761010080835404028352916020019161137d565b820191906000526020600020905b81548152906001019060200180831161136057829003601f168201915b505050505081565b6000600760008473ffffffffffffffffffffffffffffffffffffffff1673ffffffffffffffffffffffffffffffffffffffff16815260200190815260200160002060008373ffffffffffffffffffffffffffffffffffffffff1673ffffffffffffffffffffffffffffffffffffffff16815260200190815260200160002060009054906101000a900460ff16905092915050565b6000611423610ee6565b73ffffffffffffffffffffffffffffffffffffffff163373ffffffffffffffffffffffffffffffffffffffff1614905090565b6000600f600084815260200190815260200160002080546114769061406f565b9050146114b8576040517f08c379a00000000000000000000000000000000000000000000000000000000081526004016114af90614470565b60405180910390fd5b80600f600084815260200190815260200160002090816114d89190614632565b505050565b600080549050600073ffffffffffffffffffffffffffffffffffffffff168473ffffffffffffffffffffffffffffffffffffffff1603611549576040517f2e07630000000000000000000000000000000000000000000000000000000000815260040160405180910390fd5b60008303611583576040517fb562e8dd00000000000000000000000000000000000000000000000000000000815260040160405180910390fd5b6115906000858386612c42565b82600560008673ffffffffffffffffffffffffffffffffffffffff1673ffffffffffffffffffffffffffffffffffffffff16815260200190815260200160002060000160008282829054906101000a900467ffffffffffffffff160192506101000a81548167ffffffffffffffff021916908367ffffffffffffffff16021790555082600560008673ffffffffffffffffffffffffffffffffffffffff1673ffffffffffffffffffffffffffffffffffffffff16815260200190815260200160002060000160088282829054906101000a900467ffffffffffffffff160192506101000a81548167ffffffffffffffff021916908367ffffffffffffffff160217905550836004600083815260200190815260200160002060000160006101000a81548173ffffffffffffffffffffffffffffffffffffffff021916908373ffffffffffffffffffffffffffffffffffffffff160217905550426004600083815260200190815260200160002060000160146101000a81548167ffffffffffffffff021916908367ffffffffffffffff1602179055506000819050600084820190506117518673ffffffffffffffffffffffffffffffffffffffff16612c48565b15611816575b818673ffffffffffffffffffffffffffffffffffffffff16600073ffffffffffffffffffffffffffffffffffffffff167fddf252ad1be2c89b69c2b068fc378daa952ba7f163c4a11628f55a4df523b3ef60405160405180910390a46117c66000878480600101955087612c6b565b6117fc576040517fd1a57ed600000000000000000000000000000000000000000000000000000000815260040160405180910390fd5b80821061175757826000541461181157600080fd5b611881565b5b818060010192508673ffffffffffffffffffffffffffffffffffffffff16600073ffffffffffffffffffffffffffffffffffffffff167fddf252ad1be2c89b69c2b068fc378daa952ba7f163c4a11628f55a4df523b3ef60405160405180910390a4808210611817575b8160008190555050506118976000858386612dbb565b50505050565b6000816118a8611c05565b111580156118b7575060005482105b80156118e4575060046000838152602001908152602001600020600001601c9054906101000a900460ff16155b9050919050565b600e60009054906101000a900460ff16156119fb5760006daaeb6d7670e522a718067333cd4e73ffffffffffffffffffffffffffffffffffffffff163b11156119fa576daaeb6d7670e522a718067333cd4e73ffffffffffffffffffffffffffffffffffffffff1663c617113430836040518363ffffffff1660e01b8152600401611977929190614704565b602060405180830381865afa158015611994573d6000803e3d6000fd5b505050506040513d601f19601f820116820180604052508101906119b89190614742565b6119f957806040517fede71dcc0000000000000000000000000000000000000000000000000000000081526004016119f09190613888565b60405180910390fd5b5b5b50565b6000611a0982610d88565b90508073ffffffffffffffffffffffffffffffffffffffff168373ffffffffffffffffffffffffffffffffffffffff1603611a70576040517f943f7b8c00000000000000000000000000000000000000000000000000000000815260040160405180910390fd5b8073ffffffffffffffffffffffffffffffffffffffff16611a8f612dc1565b73ffffffffffffffffffffffffffffffffffffffff1614611af257611abb81611ab6612dc1565b611385565b611af1576040517fcfb3b94200000000000000000000000000000000000000000000000000000000815260040160405180910390fd5b5b611afd838383612dc9565b505050565b6000611b0c610ee6565b73ffffffffffffffffffffffffffffffffffffffff163373ffffffffffffffffffffffffffffffffffffffff1614905090565b6000600960009054906101000a900473ffffffffffffffffffffffffffffffffffffffff16905081600960006101000a81548173ffffffffffffffffffffffffffffffffffffffff021916908373ffffffffffffffffffffffffffffffffffffffff1602179055508173ffffffffffffffffffffffffffffffffffffffff168173ffffffffffffffffffffffffffffffffffffffff167f8292fce18fa69edf4db7b94ea2e58241df0ae57f97e0a6c9b29067028bf92d7660405160405180910390a35050565b600090565b611c15838383612e7b565b505050565b6000611c24610ee6565b73ffffffffffffffffffffffffffffffffffffffff163373ffffffffffffffffffffffffffffffffffffffff1614905090565b80600e60006101000a81548160ff0219169083151502179055507f38475885990d8dfe9ca01f0ef160a1b5514426eab9ddbc953a3353410ba7809681604051611ca0919061375a565b60405180910390a150565b611cc6838383604051806020016040528060008152506111b0565b505050565b6000611cd6836121ec565b90506000816000015190508215611db75760008173ffffffffffffffffffffffffffffffffffffffff16611d08612dc1565b73ffffffffffffffffffffffffffffffffffffffff161480611d375750611d3682611d31612dc1565b611385565b5b80611d7c5750611d45612dc1565b73ffffffffffffffffffffffffffffffffffffffff16611d64866108b8565b73ffffffffffffffffffffffffffffffffffffffff16145b905080611db5576040517f59c896be00000000000000000000000000000000000000000000000000000000815260040160405180910390fd5b505b611dc5816000866001612c42565b611dd160008583612dc9565b6000600560008373ffffffffffffffffffffffffffffffffffffffff1673ffffffffffffffffffffffffffffffffffffffff168152602001908152602001600020905060018160000160008282829054906101000a900467ffffffffffffffff160392506101000a81548167ffffffffffffffff021916908367ffffffffffffffff16021790555060018160000160108282829054906101000a900467ffffffffffffffff160192506101000a81548167ffffffffffffffff021916908367ffffffffffffffff1602179055506000600460008781526020019081526020016000209050828160000160006101000a81548173ffffffffffffffffffffffffffffffffffffffff021916908373ffffffffffffffffffffffffffffffffffffffff160217905550428160000160146101000a81548167ffffffffffffffff021916908367ffffffffffffffff160217905550600181600001601c6101000a81548160ff02191690831515021790555060006001870190506000600460008381526020019081526020016000209050600073ffffffffffffffffffffffffffffffffffffffff168160000160009054906101000a900473ffffffffffffffffffffffffffffffffffffffff1673ffffffffffffffffffffffffffffffffffffffff160361203457600054821461203357848160000160006101000a81548173ffffffffffffffffffffffffffffffffffffffff021916908373ffffffffffffffffffffffffffffffffffffffff16021790555085602001518160000160146101000a81548167ffffffffffffffff021916908367ffffffffffffffff1602179055505b5b5050505083600073ffffffffffffffffffffffffffffffffffffffff168273ffffffffffffffffffffffffffffffffffffffff167fddf252ad1be2c89b69c2b068fc378daa952ba7f163c4a11628f55a4df523b3ef60405160405180910390a46120a2816000866001612dbb565b60016000815480929190600101919050555050505050565b60006120c4610ee6565b73ffffffffffffffffffffffffffffffffffffffff163373ffffffffffffffffffffffffffffffffffffffff1614905090565b61271081111561213c576040517f08c379a0000000000000000000000000000000000000000000000000000000008152600401612133906147bb565b60405180910390fd5b81600a60006101000a81548173ffffffffffffffffffffffffffffffffffffffff021916908373ffffffffffffffffffffffffffffffffffffffff16021790555080600a60146101000a81548161ffff021916908361ffff1602179055508173ffffffffffffffffffffffffffffffffffffffff167f90d7ec04bcb8978719414f82e52e4cb651db41d0e6f8cea6118c2191e6183adb826040516121e0919061391f565b60405180910390a25050565b6121f4613463565b600082905080612202611c05565b116124405760005481101561243f576000600460008381526020019081526020016000206040518060600160405290816000820160009054906101000a900473ffffffffffffffffffffffffffffffffffffffff1673ffffffffffffffffffffffffffffffffffffffff1673ffffffffffffffffffffffffffffffffffffffff1681526020016000820160149054906101000a900467ffffffffffffffff1667ffffffffffffffff1667ffffffffffffffff16815260200160008201601c9054906101000a900460ff1615151515815250509050806040015161243d57600073ffffffffffffffffffffffffffffffffffffffff16816000015173ffffffffffffffffffffffffffffffffffffffff1614612321578092505050612472565b5b60011561243c57818060019003925050600460008381526020019081526020016000206040518060600160405290816000820160009054906101000a900473ffffffffffffffffffffffffffffffffffffffff1673ffffffffffffffffffffffffffffffffffffffff1673ffffffffffffffffffffffffffffffffffffffff1681526020016000820160149054906101000a900467ffffffffffffffff1667ffffffffffffffff1667ffffffffffffffff16815260200160008201601c9054906101000a900460ff1615151515815250509050600073ffffffffffffffffffffffffffffffffffffffff16816000015173ffffffffffffffffffffffffffffffffffffffff1614612437578092505050612472565b612322565b5b505b5b6040517fdf2d9b4200000000000000000000000000000000000000000000000000000000815260040160405180910390fd5b919050565b600080838561248691906147db565b9050809150600c81908060018154018082558091505060019003906000526020600020016000909190919091505582600d600083815260200190815260200160002090816124d49190614632565b50935093915050565b60006124e7610ee6565b73ffffffffffffffffffffffffffffffffffffffff163373ffffffffffffffffffffffffffffffffffffffff1614905090565b6000600880546125299061406f565b80601f01602080910402602001604051908101604052809291908181526020018280546125559061406f565b80156125a25780601f10612577576101008083540402835291602001916125a2565b820191906000526020600020905b81548152906001019060200180831161258557829003601f168201915b5050505050905081600890816125b89190614632565b507fc9c7c3fe08b88b4df9d4d47ef47d2c43d55c025a0ba88ca442580ed9e7348a1681836040516125ea92919061480f565b60405180910390a15050565b61271081111561263b576040517f08c379a0000000000000000000000000000000000000000000000000000000008152600401612632906147bb565b60405180910390fd5b60405180604001604052808373ffffffffffffffffffffffffffffffffffffffff16815260200182815250600b600085815260200190815260200160002060008201518160000160006101000a81548173ffffffffffffffffffffffffffffffffffffffff021916908373ffffffffffffffffffffffffffffffffffffffff160217905550602082015181600101559050508173ffffffffffffffffffffffffffffffffffffffff16837f7365cf4122f072a3365c20d54eff9b38d73c096c28e1892ec8f5b0e403a0f12d83604051612714919061391f565b60405180910390a3505050565b612729612dc1565b73ffffffffffffffffffffffffffffffffffffffff168273ffffffffffffffffffffffffffffffffffffffff160361278d576040517fb06307db00000000000000000000000000000000000000000000000000000000815260040160405180910390fd5b806007600061279a612dc1565b73ffffffffffffffffffffffffffffffffffffffff1673ffffffffffffffffffffffffffffffffffffffff16815260200190815260200160002060008473ffffffffffffffffffffffffffffffffffffffff1673ffffffffffffffffffffffffffffffffffffffff16815260200190815260200160002060006101000a81548160ff0219169083151502179055508173ffffffffffffffffffffffffffffffffffffffff16612847612dc1565b73ffffffffffffffffffffffffffffffffffffffff167f17307eab39ab6107e8899845ad3d59bd9653f200f220920489ca2b5937696c318360405161288c919061375a565b60405180910390a35050565b60606128bd8383604051806060016040528060278152602001614ad56027913961332f565b905092915050565b6128d0848484612e7b565b6128ef8373ffffffffffffffffffffffffffffffffffffffff16612c48565b156129375761290084848484612c6b565b612936576040517fd1a57ed600000000000000000000000000000000000000000000000000000000815260040160405180910390fd5b5b50505050565b60606000612949610d9e565b90506000600c80548060200260200160405190810160405280929190818152602001828054801561299957602002820191906000526020600020905b815481526020019060010190808311612985575b5050505050905060005b82811015612aa1578181815181106129be576129bd614178565b5b6020026020010151851015612a8d57600d60008383815181106129e4576129e3614178565b5b602002602001015181526020019081526020016000208054612a059061406f565b80601f0160208091040260200160405190810160405280929190818152602001828054612a319061406f565b8015612a7e5780601f10612a5357610100808354040283529160200191612a7e565b820191906000526020600020905b815481529060010190602001808311612a6157829003601f168201915b50505050509350505050612add565b600181612a9a91906147db565b90506129a3565b506040517f08c379a0000000000000000000000000000000000000000000000000000000008152600401612ad490614892565b60405180910390fd5b919050565b606060008203612b29576040518060400160405280600181526020017f30000000000000000000000000000000000000000000000000000000000000008152509050612c3d565b600082905060005b60008214612b5b578080612b449061437c565b915050600a82612b549190614247565b9150612b31565b60008167ffffffffffffffff811115612b7757612b76613533565b5b6040519080825280601f01601f191660200182016040528015612ba95781602001600182028036833780820191505090505b5090505b60008514612c3657600182612bc291906148b2565b9150600a85612bd191906148e6565b6030612bdd91906147db565b60f81b818381518110612bf357612bf2614178565b5b60200101907effffffffffffffffffffffffffffffffffffffffffffffffffffffffffffff1916908160001a905350600a85612c2f9190614247565b9450612bad565b8093505050505b919050565b50505050565b6000808273ffffffffffffffffffffffffffffffffffffffff163b119050919050565b60008373ffffffffffffffffffffffffffffffffffffffff1663150b7a02612c91612dc1565b8786866040518563ffffffff1660e01b8152600401612cb39493929190614961565b6020604051808303816000875af1925050508015612cef57506040513d601f19601f82011682018060405250810190612cec91906149c2565b60015b612d68573d8060008114612d1f576040519150601f19603f3d011682016040523d82523d6000602084013e612d24565b606091505b506000815103612d60576040517fd1a57ed600000000000000000000000000000000000000000000000000000000815260040160405180910390fd5b805181602001fd5b63150b7a0260e01b7bffffffffffffffffffffffffffffffffffffffffffffffffffffffff1916817bffffffffffffffffffffffffffffffffffffffffffffffffffffffff191614915050949350505050565b50505050565b600033905090565b826006600084815260200190815260200160002060006101000a81548173ffffffffffffffffffffffffffffffffffffffff021916908373ffffffffffffffffffffffffffffffffffffffff160217905550818373ffffffffffffffffffffffffffffffffffffffff168273ffffffffffffffffffffffffffffffffffffffff167f8c5be1e5ebec7d5bd14f71427d1e84f3dd0314c0f7b2291e5b200ac8c7c3b92560405160405180910390a4505050565b6000612e86826121ec565b90508373ffffffffffffffffffffffffffffffffffffffff16816000015173ffffffffffffffffffffffffffffffffffffffff1614612ef1576040517fa114810000000000000000000000000000000000000000000000000000000000815260040160405180910390fd5b60008473ffffffffffffffffffffffffffffffffffffffff16612f12612dc1565b73ffffffffffffffffffffffffffffffffffffffff161480612f415750612f4085612f3b612dc1565b611385565b5b80612f865750612f4f612dc1565b73ffffffffffffffffffffffffffffffffffffffff16612f6e846108b8565b73ffffffffffffffffffffffffffffffffffffffff16145b905080612fbf576040517f59c896be00000000000000000000000000000000000000000000000000000000815260040160405180910390fd5b600073ffffffffffffffffffffffffffffffffffffffff168473ffffffffffffffffffffffffffffffffffffffff1603613025576040517fea553b3400000000000000000000000000000000000000000000000000000000815260040160405180910390fd5b6130328585856001612c42565b61303e60008487612dc9565b6001600560008773ffffffffffffffffffffffffffffffffffffffff1673ffffffffffffffffffffffffffffffffffffffff16815260200190815260200160002060000160008282829054906101000a900467ffffffffffffffff160392506101000a81548167ffffffffffffffff021916908367ffffffffffffffff1602179055506001600560008673ffffffffffffffffffffffffffffffffffffffff1673ffffffffffffffffffffffffffffffffffffffff16815260200190815260200160002060000160008282829054906101000a900467ffffffffffffffff160192506101000a81548167ffffffffffffffff021916908367ffffffffffffffff1602179055506000600460008581526020019081526020016000209050848160000160006101000a81548173ffffffffffffffffffffffffffffffffffffffff021916908373ffffffffffffffffffffffffffffffffffffffff160217905550428160000160146101000a81548167ffffffffffffffff021916908367ffffffffffffffff16021790555060006001850190506000600460008381526020019081526020016000209050600073ffffffffffffffffffffffffffffffffffffffff168160000160009054906101000a900473ffffffffffffffffffffffffffffffffffffffff1673ffffffffffffffffffffffffffffffffffffffff16036132bd5760005482146132bc57878160000160006101000a81548173ffffffffffffffffffffffffffffffffffffffff021916908373ffffffffffffffffffffffffffffffffffffffff16021790555084602001518160000160146101000a81548167ffffffffffffffff021916908367ffffffffffffffff1602179055505b5b505050828473ffffffffffffffffffffffffffffffffffffffff168673ffffffffffffffffffffffffffffffffffffffff167fddf252ad1be2c89b69c2b068fc378daa952ba7f163c4a11628f55a4df523b3ef60405160405180910390a46133288585856001612dbb565b5050505050565b606061333a84612c48565b613379576040517f08c379a000000000000000000000000000000000000000000000000000000000815260040161337090614a61565b60405180910390fd5b6000808573ffffffffffffffffffffffffffffffffffffffff16856040516133a19190614abd565b600060405180830381855af49150503d80600081146133dc576040519150601f19603f3d011682016040523d82523d6000602084013e6133e1565b606091505b50915091506133f18282866133fc565b925050509392505050565b6060831561340c5782905061345c565b60008351111561341f5782518084602001fd5b816040517f08c379a000000000000000000000000000000000000000000000000000000000815260040161345391906137f4565b60405180910390fd5b9392505050565b6040518060600160405280600073ffffffffffffffffffffffffffffffffffffffff168152602001600067ffffffffffffffff1681526020016000151581525090565b6000604051905090565b600080fd5b600080fd5b600073ffffffffffffffffffffffffffffffffffffffff82169050919050565b60006134e5826134ba565b9050919050565b6134f5816134da565b811461350057600080fd5b50565b600081359050613512816134ec565b92915050565b600080fd5b600080fd5b6000601f19601f8301169050919050565b7f4e487b7100000000000000000000000000000000000000000000000000000000600052604160045260246000fd5b61356b82613522565b810181811067ffffffffffffffff8211171561358a57613589613533565b5b80604052505050565b600061359d6134a6565b90506135a98282613562565b919050565b600067ffffffffffffffff8211156135c9576135c8613533565b5b6135d282613522565b9050602081019050919050565b82818337600083830152505050565b60006136016135fc846135ae565b613593565b90508281526020810184848401111561361d5761361c61351d565b5b6136288482856135df565b509392505050565b600082601f83011261364557613644613518565b5b81356136558482602086016135ee565b91505092915050565b60008060408385031215613675576136746134b0565b5b600061368385828601613503565b925050602083013567ffffffffffffffff8111156136a4576136a36134b5565b5b6136b085828601613630565b9150509250929050565b60007fffffffff0000000000000000000000000000000000000000000000000000000082169050919050565b6136ef816136ba565b81146136fa57600080fd5b50565b60008135905061370c816136e6565b92915050565b600060208284031215613728576137276134b0565b5b6000613736848285016136fd565b91505092915050565b60008115159050919050565b6137548161373f565b82525050565b600060208201905061376f600083018461374b565b92915050565b600081519050919050565b600082825260208201905092915050565b60005b838110156137af578082015181840152602081019050613794565b60008484015250505050565b60006137c682613775565b6137d08185613780565b93506137e0818560208601613791565b6137e981613522565b840191505092915050565b6000602082019050818103600083015261380e81846137bb565b905092915050565b6000819050919050565b61382981613816565b811461383457600080fd5b50565b60008135905061384681613820565b92915050565b600060208284031215613862576138616134b0565b5b600061387084828501613837565b91505092915050565b613882816134da565b82525050565b600060208201905061389d6000830184613879565b92915050565b600080604083850312156138ba576138b96134b0565b5b60006138c885828601613503565b92505060206138d985828601613837565b9150509250929050565b6000602082840312156138f9576138f86134b0565b5b600061390784828501613503565b91505092915050565b61391981613816565b82525050565b60006020820190506139346000830184613910565b92915050565b600080600060608486031215613953576139526134b0565b5b600061396186828701613503565b935050602061397286828701613503565b925050604061398386828701613837565b9150509250925092565b600080604083850312156139a4576139a36134b0565b5b60006139b285828601613837565b92505060206139c385828601613837565b9150509250929050565b60006040820190506139e26000830185613879565b6139ef6020830184613910565b9392505050565b6139ff8161373f565b8114613a0a57600080fd5b50565b600081359050613a1c816139f6565b92915050565b600060208284031215613a3857613a376134b0565b5b6000613a4684828501613a0d565b91505092915050565b6000819050919050565b6000613a74613a6f613a6a846134ba565b613a4f565b6134ba565b9050919050565b6000613a8682613a59565b9050919050565b6000613a9882613a7b565b9050919050565b613aa881613a8d565b82525050565b6000602082019050613ac36000830184613a9f565b92915050565b600061ffff82169050919050565b613ae081613ac9565b82525050565b6000604082019050613afb6000830185613879565b613b086020830184613ad7565b9392505050565b600067ffffffffffffffff821115613b2a57613b29613533565b5b613b3382613522565b9050602081019050919050565b6000613b53613b4e84613b0f565b613593565b905082815260208101848484011115613b6f57613b6e61351d565b5b613b7a8482856135df565b509392505050565b600082601f830112613b9757613b96613518565b5b8135613ba7848260208601613b40565b91505092915050565b60008060008060808587031215613bca57613bc96134b0565b5b6000613bd887828801613503565b9450506020613be987828801613837565b935050604085013567ffffffffffffffff811115613c0a57613c096134b5565b5b613c1687828801613630565b925050606085013567ffffffffffffffff811115613c3757613c366134b5565b5b613c4387828801613b82565b91505092959194509250565b600060208284031215613c6557613c646134b0565b5b600082013567ffffffffffffffff811115613c8357613c826134b5565b5b613c8f84828501613630565b91505092915050565b600080600060608486031215613cb157613cb06134b0565b5b6000613cbf86828701613837565b9350506020613cd086828701613503565b9250506040613ce186828701613837565b9150509250925092565b60008060408385031215613d0257613d016134b0565b5b6000613d1085828601613503565b9250506020613d2185828601613a0d565b9150509250929050565b600080fd5b600080fd5b60008083601f840112613d4b57613d4a613518565b5b8235905067ffffffffffffffff811115613d6857613d67613d2b565b5b602083019150836020820283011115613d8457613d83613d30565b5b9250929050565b60008060208385031215613da257613da16134b0565b5b600083013567ffffffffffffffff811115613dc057613dbf6134b5565b5b613dcc85828601613d35565b92509250509250929050565b600081519050919050565b600082825260208201905092915050565b6000819050602082019050919050565b600081519050919050565b600082825260208201905092915050565b6000613e2b82613e04565b613e358185613e0f565b9350613e45818560208601613791565b613e4e81613522565b840191505092915050565b6000613e658383613e20565b905092915050565b6000602082019050919050565b6000613e8582613dd8565b613e8f8185613de3565b935083602082028501613ea185613df4565b8060005b85811015613edd5784840389528151613ebe8582613e59565b9450613ec983613e6d565b925060208a01995050600181019050613ea5565b50829750879550505050505092915050565b60006020820190508181036000830152613f098184613e7a565b905092915050565b60008060008060808587031215613f2b57613f2a6134b0565b5b6000613f3987828801613503565b9450506020613f4a87828801613503565b9350506040613f5b87828801613837565b925050606085013567ffffffffffffffff811115613f7c57613f7b6134b5565b5b613f8887828801613b82565b91505092959194509250565b60008060408385031215613fab57613faa6134b0565b5b6000613fb985828601613503565b9250506020613fca85828601613503565b9150509250929050565b7f4e6f7420617574686f72697a656420746f206d696e742e000000000000000000600082015250565b600061400a601783613780565b915061401582613fd4565b602082019050919050565b6000602082019050818103600083015261403981613ffd565b9050919050565b7f4e487b7100000000000000000000000000000000000000000000000000000000600052602260045260246000fd5b6000600282049050600182168061408757607f821691505b60208210810361409a57614099614040565b5b50919050565b7f4e6f7420617574686f72697a6564000000000000000000000000000000000000600082015250565b60006140d6600e83613780565b91506140e1826140a0565b602082019050919050565b60006020820190508181036000830152614105816140c9565b9050919050565b7f496e76616c696420696e64657800000000000000000000000000000000000000600082015250565b6000614142600d83613780565b915061414d8261410c565b602082019050919050565b6000602082019050818103600083015261417181614135565b9050919050565b7f4e487b7100000000000000000000000000000000000000000000000000000000600052603260045260246000fd5b7f4e487b7100000000000000000000000000000000000000000000000000000000600052601160045260246000fd5b60006141e182613816565b91506141ec83613816565b92508282026141fa81613816565b91508282048414831517614211576142106141a7565b5b5092915050565b7f4e487b7100000000000000000000000000000000000000000000000000000000600052601260045260246000fd5b600061425282613816565b915061425d83613816565b92508261426d5761426c614218565b5b828204905092915050565b7f4e6f7420617574686f72697a656420746f20736574206f70657261746f72207260008201527f65737472696374696f6e2e000000000000000000000000000000000000000000602082015250565b60006142d4602b83613780565b91506142df82614278565b604082019050919050565b60006020820190508181036000830152614303816142c7565b9050919050565b600080fd5b600080fd5b600080fd5b600080833560016020038436030381126143365761433561430a565b5b80840192508235915067ffffffffffffffff8211156143585761435761430f565b5b60208301925060018202360383131561437457614373614314565b5b509250929050565b600061438782613816565b91507fffffffffffffffffffffffffffffffffffffffffffffffffffffffffffffffff82036143b9576143b86141a7565b5b600182019050919050565b600081905092915050565b60006143da82613775565b6143e481856143c4565b93506143f4818560208601613791565b80840191505092915050565b600061440c82856143cf565b915061441882846143cf565b91508190509392505050565b7f55524920616c7265616479207365740000000000000000000000000000000000600082015250565b600061445a600f83613780565b915061446582614424565b602082019050919050565b600060208201905081810360008301526144898161444d565b9050919050565b60008190508160005260206000209050919050565b60006020601f8301049050919050565b600082821b905092915050565b6000600883026144f27fffffffffffffffffffffffffffffffffffffffffffffffffffffffffffffffff826144b5565b6144fc86836144b5565b95508019841693508086168417925050509392505050565b600061452f61452a61452584613816565b613a4f565b613816565b9050919050565b6000819050919050565b61454983614514565b61455d61455582614536565b8484546144c2565b825550505050565b600090565b614572614565565b61457d818484614540565b505050565b5b818110156145a15761459660008261456a565b600181019050614583565b5050565b601f8211156145e6576145b781614490565b6145c0846144a5565b810160208510156145cf578190505b6145e36145db856144a5565b830182614582565b50505b505050565b600082821c905092915050565b6000614609600019846008026145eb565b1980831691505092915050565b600061462283836145f8565b9150826002028217905092915050565b61463b82613775565b67ffffffffffffffff81111561465457614653613533565b5b61465e825461406f565b6146698282856145a5565b600060209050601f83116001811461469c576000841561468a578287015190505b6146948582614616565b8655506146fc565b601f1984166146aa86614490565b60005b828110156146d2578489015182556001820191506020850194506020810190506146ad565b868310156146ef57848901516146eb601f8916826145f8565b8355505b6001600288020188555050505b505050505050565b60006040820190506147196000830185613879565b6147266020830184613879565b9392505050565b60008151905061473c816139f6565b92915050565b600060208284031215614758576147576134b0565b5b60006147668482850161472d565b91505092915050565b7f45786365656473206d6178206270730000000000000000000000000000000000600082015250565b60006147a5600f83613780565b91506147b08261476f565b602082019050919050565b600060208201905081810360008301526147d481614798565b9050919050565b60006147e682613816565b91506147f183613816565b9250828201905080821115614809576148086141a7565b5b92915050565b6000604082019050818103600083015261482981856137bb565b9050818103602083015261483d81846137bb565b90509392505050565b7f496e76616c696420746f6b656e49640000000000000000000000000000000000600082015250565b600061487c600f83613780565b915061488782614846565b602082019050919050565b600060208201905081810360008301526148ab8161486f565b9050919050565b60006148bd82613816565b91506148c883613816565b92508282039050818111156148e0576148df6141a7565b5b92915050565b60006148f182613816565b91506148fc83613816565b92508261490c5761490b614218565b5b828206905092915050565b600082825260208201905092915050565b600061493382613e04565b61493d8185614917565b935061494d818560208601613791565b61495681613522565b840191505092915050565b60006080820190506149766000830187613879565b6149836020830186613879565b6149906040830185613910565b81810360608301526149a28184614928565b905095945050505050565b6000815190506149bc816136e6565b92915050565b6000602082840312156149d8576149d76134b0565b5b60006149e6848285016149ad565b91505092915050565b7f416464726573733a2064656c65676174652063616c6c20746f206e6f6e2d636f60008201527f6e74726163740000000000000000000000000000000000000000000000000000602082015250565b6000614a4b602683613780565b9150614a56826149ef565b604082019050919050565b60006020820190508181036000830152614a7a81614a3e565b9050919050565b600081905092915050565b6000614a9782613e04565b614aa18185614a81565b9350614ab1818560208601613791565b80840191505092915050565b6000614ac98284614a8c565b91508190509291505056fe416464726573733a206c6f772d6c6576656c2064656c65676174652063616c6c206661696c6564a26469706673582212200fc10fdff9d8ae0d257e8fdfa7f93adc4f01ed4d59d1620719c4291ed93b904664736f6c63430008120033",
  "linkReferences": {},
  "deployedLinkReferences": {}
}